:1000000080314C28013401347E1480310030860068
:10001000003087002E00161C0E280F2817280C1CF5
:100020001228132817288931512180314A28961E19
:100030001A281B2823288C1E1E281F2823288931B4
:10004000FF2180314A28161E262827282F280C1E1B
:100050002A282B282F2889318C2180314A280B1FF0
:10006000322833284A281A1C362837283F28101CE3
:100070003A283B283F288A31A22280314A281B1C7B
:10008000422843284A28111C462847284A288A31F2
:100090000E2280317E10090080314E2822008031EE
:1000A00002208031EE00803103208031EF00FA0120
:1000B000FB01203084000130850034308731FA277D
:1000C0008031A03084000130850024308731FA2748
:1000D00080317E1020008631342E200041088600B9
:1000E0008701403FC300413FC400430884004408E7
:1000F00085001200253A031D7E287F288F2941089C
:10010000860087010130810741310318810A2200EE
:10011000C301C4010030C900FF302300A000FF303C
:10012000A1002000C801B3282200C9142000410802
:10013000860087010130810741310318810AB32805
:100140000130C800B328410886008701403FC30042
:10015000413FC40043088400440885000008303A49
:1001600003199428A02848080319B728B828A328F9
:100170004108F8004208F9008E31B926803179082B
:100180002200C4007808C300C41FC728C828CE288E
:100190004914C309C409C30A0319C40A2000410849
:1001A00086008701403FC300413FC40043088400EC
:1001B000440885001200633A031DDF28E028012966
:1001C0004108860087010130810741310318810A07
:1001D00042088600870101088400850102308107FA
:1001E0000008C7004008A6003F08A5004708A70070
:1001F0008F311527803120002608C0002508BF0058
:10020000B529410886008701403FCD00413FCE001F
:100210004D0884004E0885001200643A0319112924
:1002200012291C294D0884004E0885001200693AE5
:10023000031D1B291C294629420886008701010845
:100240008400850102308107003FC900013FCA00D8
:100250004D08013EC30000304E3DC40041088600F9
:1002600087014308C03F4408C13F4008B3003F082E
:10027000B2004A08B5004908B40083319F23803199
:1002800020003308C0003208BF00B5294D088400A3
:100290004E0885001200753A031D4F295029842904
:1002A0004208860087010108840085010230810729
:1002B000003FC900013FCA004D08013EC3000030A5
:1002C0004E3DC4004108860087014308C03F4408F2
:1002D000C13F7B294008B3003F08B2004A08B5007F
:1002E0004908B4008F318727803120003308C000CF
:1002F0003208BF00B5294D0884004E08850000086B
:10030000753A03196A29842941088600870101305A
:10031000810741310318810ABF01C001B529410895
:1003200086008701403FC300413FC400430884006A
:10033000440885000008C500C6014508F2004608CB
:10034000F3004008F5003F08F4008D31AB25803103
:1003500020004108860087010130810741310318E0
:10036000810A0130BF000030C000080023000F0CDC
:10037000890C0139F40011081F397404031DC129C7
:10038000C229B62911141118C629C729C3290F0C6F
:10039000890C0139F40011081F397404031DD12997
:1003A000D229C7299A308C316924813123000F0C5E
:1003B000890C0139F40011081F397404031DE12967
:1003C000E229D62901308C316924813123000F0CB8
:1003D000890C0139F40011081F397404031DF12937
:1003E000F229E62991149118F629F729F3290F0C1F
:1003F000890C0139F40011081F397404031D012A06
:10040000022AF7299B308C316924813123000F0C9B
:10041000890C0139F40011081F397404031D112AD5
:10042000122A062A8A31D1228131F50023000F0CCD
:10043000890C0139F40011081F397404031D212AA5
:10044000222A162A91161116111A272A282A242A36
:100450000F0C890C0139F40011081F397404031DB5
:10046000322A332A282A11151119372A382A342A10
:10047000751F3B2A3C2AB6290F0C890C0139F40060
:1004800011081F397404031D462A472A3C2A1114F7
:1004900011184B2A4C2A482A0F0C890C0139F400F8
:1004A00011081F397404031D562A572A4C2A9A3002
:1004B0008C316924813123000F0C890C0139F4003F
:1004C00011081F397404031D662A672A5B2A00304D
:1004D0008C316924813123000F0C890C0139F4001F
:1004E00011081F397404031D762A772A6B2A911488
:1004F00091187B2A7C2A782A0F0C890C0139F40088
:1005000011081F397404031D862A872A7C2A9B3010
:100510008C316924813123000F0C890C0139F400DE
:1005200011081F397404031D962A972A8B2A8A31D1
:10053000D1228131F50023000F0C890C0139F40020
:1005400011081F397404031DA62AA72A9B2A911695
:100550001116111AAC2AAD2AA92A0F0C890C0139DF
:10056000F40011081F397404031DB72AB82AAD2AF4
:1005700011151119BC2ABD2AB92A750808000330C3
:100580007A060319C42AC52ACB2A20302100E100AB
:100590000030E200D02A5E302100E1000030E200AD
:1005A0006108DE0004307A060319D72AD82ADD2A2A
:1005B0002030E3000030E400E12A5E30E300003048
:1005C000E4006308DF0005307A060319E82AE92A07
:1005D000EE2A2030E5000030E600F22A5E30E50029
:1005E0000030E6006508E00022004F08031DF92AEC
:1005F000FA2A002B61302100E7000030E800052BCB
:1006000041302100E7000030E800BC302000D70076
:100610001130D8000030D9003B30DA009030DB00D8
:10062000220052082100B000B10130082000DC0097
:10063000210031082000DD00220051082100B20015
:10064000B30132082000DE00210033082000DF0063
:10065000220050082100B400B50134082000E00059
:10066000210035082000E10021005E08B600B70136
:1006700036082000E200210037082000E3002100B6
:100680005F08B800B90138082000E40021003908EB
:100690002000E50021006008BA00BB013A082000F4
:1006A000E60021003B082000E70021006808200048
:1006B000E900210067082000E8008531AB25823180
:1006C000CD302000D7001130D8000030D90055308F
:1006D000DA009030DB0022004B082100B000B101AD
:1006E00030082000DC00210031082000DD0022005D
:1006F0004A082100B200B30132082000DE002100C8
:1007000033082000DF008531AB258231803089310C
:1007100075218231BC302000A0000030A1008A3158
:1007200078228231C030893175218231CD3020006C
:10073000A0000030A1008A31782282310800013007
:100740002000B900B51BA52BA72B0130A82B00302A
:10075000BC00220044082000BB0022004308200007
:10076000BA003C080319B52BB62BCA2BFF30BA07C9
:10077000FF30BB3D3C08031DBE2BBF2BC42B2B30D1
:10078000B7000030B800C82B2D30B7000030B800DB
:100790003708BC001F30BD000030BE002300C3017D
:1007A000062CFF302000BD07FF30BE3D3D08A43EB3
:1007B0008600013087000A30F2000030F30035086F
:1007C000F5003408F4008C31B42483317308F90047
:1007D0007208F8008A31402283317808303E810067
:1007E0002000B901FF30BA07FF30BB3D0A30F200EC
:1007F0000030F3003508F5003408F4008E315E2631
:10080000833173082000B5007208B40020003E0850
:10081000803AB60080303602031D102C01303D02B4
:10082000031C132C142C322C200034083504031D17
:100830001A2C1B2CD12B3908031D1F2C202CD12B3B
:100840003B08803AB60080303602031D292C013067
:100850003A02031C2C2C2D2C322C2200C918312CCE
:10086000322CD12B20003C080319372C382C432C78
:10087000FF30BD07FF30BE3D3D08A43E860001307D
:1008800087003C0881003308AC003208AB003D080B
:10089000A43EAD003B08AF003A08AE008D315625AE
:1008A000833120002C08B3002B08B2000800F600AA
:1008B0007608F039F7007608F5000430F535890B35
:1008C0005E2C7508F039F80023000F0C890C0139F3
:1008D000F50011081F397504031D6F2C702C642C52
:1008E00011141118742C752C712C0F0C890C0139F2
:1008F000F50011081F397504031D7F2C802C752C01
:100900004E308C316924843123000F0C890C01395D
:10091000F50011081F397504031D8F2C902C842CB1
:100920007708740408388C316924843123000F0C53
:10093000890C0139F50011081F397504031DA12C1C
:10094000A22C962C770874040C388C3169248431DD
:1009500023000F0C890C0139F50011081F397504AB
:10096000031DB32CB42CA82C00007708740408389D
:100970008C316924843123000F0C890C0139F50076
:1009800011081F397504031DC62CC72CBB2C780811
:10099000740408388C316924843123000F0C890CCD
:1009A0000139F50011081F397504031DD82CD92C05
:1009B000CD2C780874040C388C31692484312300E0
:1009C0000F0C890C0139F50011081F397504031D3E
:1009D000EA2CEB2CDF2C00007808740408388C31EA
:1009E0006924843123000F0C890C0139F5001108AA
:1009F0001F397504031DFD2CFE2CF22C1115111945
:100A0000022D032DFF2C1030890B042D003208001D
:100A100022004F08031D0D2D0E2D142D61302100D5
:100A2000C7000030C800192D41302100C700003038
:100A3000C80022004C08031D1E2D1F2D252D20301F
:100A40002100C9000030CA002A2D4C302100C90005
:100A50000030CA0022004D08031D2F2D302D362DE9
:100A600020302100CB000030CC003B2D5430210041
:100A7000CB000030CC0022004E08031D402D412D3C
:100A8000472D20302100CD000030CE004C2D4330CA
:100A90002100CD000030CE00B6302000D70011304C
:100AA000D8000030D9002030DA009030DB0022007E
:100AB00052082100B000B10130082000DC00210004
:100AC00031082000DD00220051082100B200B301EE
:100AD00032082000DE00210033082000DF00220061
:100AE00050082100B400B50134082000E0002100C6
:100AF00035082000E10021004E082000E30021001D
:100B00004D082000E20021004C082000E5002100F3
:100B10004B082000E40021004A082000E7002100E3
:100B200049082000E600210048082000E9002100D3
:100B300047082000E8008531AB25853180308931B8
:100B400075218531B6302000A0000030A1008A3127
:100B500078228531080080302000590200300319C6
:100B60005802031CB42DB52DBB2D4B302300A20021
:100B70000030A300332E5C302100A4002000570871
:100B80002100A500A60100302000590202300319FF
:100B90005802031CCC2DCD2DD92D5808FF3E210025
:100BA000AE00FF302000593D2100AF00A701A80191
:100BB000E22D01302100AE000030AF000130A7006F
:100BC0000030A800A5302000CF000030D0005B0826
:100BD000D2005A08D100A430D3008B31CE23853106
:100BE000200050082100A30020004F082100A2008F
:100BF0002000580859040319FE2DFF2D332E210023
:100C0000A31B032E042E332E20005808FF3EEA00BB
:100C1000FF30593DEB0021002308803A2000EC0012
:100C20006B08803A6C02031D182E6A08210022020C
:100C3000031C1B2E1C2E272E20005808FF3E2100CF
:100C4000A000FF302000593D2100A1002C2E2100E2
:100C50002308A1002208A000200057082100200737
:100C6000860087018101080000302200E800003082
:100C7000E7000030E6000030E5008A31EB228631E3
:100C80008931D621863187313B2786318A312E2220
:100C900086318A31522286318931B2218631003A39
:100CA0000319532E542EB72E89319E218631750893
:100CB0002200ED007408EC007308EB007208EA00F3
:100CC0008D3105258631220065086A022100E90080
:100CD000220066086B3B2100EA00220067086C3B9B
:100CE0002100EB00220068086D3B2100EC006C083D
:100CF000031D852E6B08031D852E6A08031D852E96
:100D0000053069020318852E862E872EB72E220005
:100D10006D08E8006C08E7006B08E6006A08E5006B
:100D20008131B62186312200E900C0308931752138
:100D3000863154302000D7006430D8009030D9007C
:100D4000220069082100E900EA0169082000DA00B0
:100D500021006A082000DB008B316023863154308B
:100D60002000A0000130A1008A3178228631630082
:100D700000004C2E80314C287B03031DC02EC12E59
:100D80003A2F182F1830F2000030F30022005208DA
:100D9000013EF400003003180130F5008C31B4241A
:100DA000863172082200D2003A2F3C30F200003027
:100DB000F30022005108013EF40000300318013016
:100DC000F5008C31B424863172082200D1003A2F0C
:100DD0003C30F2000030F30022005008013EF400E5
:100DE000003003180130F5008C31B42486317208CC
:100DF0002200D0003A2F3330F2000030F3002200FE
:100E00004B08013EF400003003180130F5008C312E
:100E1000B424863172082200CB003A2F22004A08FF
:100E2000013E0339CA003A2F01302200CF063A2F83
:100E30007A08F800F9017908003A0319202F3A2FAF
:100E40007808003A0319C22E013A0319D52E033A45
:100E50000319E82E013A03193A2F073A0319FB2E1A
:100E6000013A03190E2F033A0319142F013A0319FB
:100E70003A2F3A2F08004130F900EE30890B3E2F0F
:100E8000F90B3E2F003230308731B72787313430AD
:100E90008731B7278731A630890B4C2F003230308D
:100EA0008731B72787310730F9007D30890B562FFE
:100EB000F90B562F000030308731B7278731343097
:100EC0008731B7278731A630890B642F0032303045
:100ED0008731B72787312130890B6C2F00003030E4
:100EE0008731B727873134308731B7278731A6302C
:100EF000890B782F003230308731B7278731213086
:100F0000890B802F000020308731B72787312430AC
:100F10008731B7278731A630890B8C2F00322030DC
:100F20008731B72787310730F9007D30890B962F3D
:100F3000F90B962F0000F4012830843157248731B3
:100F4000F4010630843157248731F4010F308431A5
:100F500057248731F401013084315724873103301D
:100F6000F9009830890BB22FF90BB22F0800F50069
:100F700023000F0C890C0139F40011081F39740487
:100F8000031DC32FC42FB82F11141118C82FC92F38
:100F9000C52F0F0C890C0139F40011081F39740496
:100FA000031DD32FD42FC92F4E308C3169248731A4
:100FB00023000F0C890C0139F40011081F39740447
:100FC000031DE32FE42FD82F75088C316924873156
:100FD00023000F0C890C0139F40011081F39740427
:100FE000031DF32FF42FE82F11151119F82FF92FE6
:100FF000F52F0800640080010131890BFB2F0034BC
:10127C0008000800080008000800080024000E14EC
:10128C000800310096019030950008002200CC0136
:10129C00CD01CE0108002E000C108931C9218931F5
:1012AC00080073082300CB007208CA0008007308FA
:1012BC002300C5007208C400080073082300CD0089
:1012CC007208CC00080073082300C7007208C6001F
:1012DC00080073082300C9007208C8000800F90050
:1012EC00F401790884315724893108002F009601C4
:1012FC009701980199019A019B010800F900F401EA
:10130C00F40A790884315724893108003E00D51E2F
:10131C009029912994298931F02189310800623072
:10132C0031008D008F019101023093009201080071
:10133C0022004008F5003F08F4003E08F3003D0889
:10134C00F2000800803023008F00083090009101DB
:10135C0003308D0090120800220053080319B7299E
:10136C00B829BB29D3010130BC29003008008030DA
:10137C002900980099019A019B019D019C019701FC
:10138C009601950108002300440845040319CF2950
:10139C00D029D52945088A0044080A00893108005B
:1013AC00803023008F0008309000910103308D00B5
:1013BC00901620009315131608002E000C100B1419
:1013CC003E30F2000930F30089315D2189312E0065
:1013DC001614080023004C084D040319F629F729AC
:1013EC00FC294D088A004C080A0089313E00D512B0
:1013FC0008002E008C122300460847040319072A04
:10140C00082A0D2A47088A0046080A008A31080073
:10141C002E0011102300480849040319162A172A14
:10142C001C2A49088A0048080A008A31080024004E
:10143C000E1D212A222A292A0E1071088D007008EF
:10144C008C000E142D2A71088D0070088C00080079
:10145C003E00B813200091139613B930F2000A30F5
:10146C00F300893157218A31893144218A318B1714
:10147C000B170800F91B432A442A452A512A7809DC
:10148C002000A0007909A100A00A0319A10A2008D4
:10149C00F8002108F90008002200CF01D001D10189
:1014AC00D2011430CB000230CA00FB01FA018731A3
:1014BC003B278A31853108258A310800B730200056
:1014CC009F00FF309D009C012E008C129616403020
:1014DC00F2000930F300893169218A318030200013
:1014EC009E0008007D2A2208893184218A3120003F
:1014FC002108870020088600A00A0319A10A010808
:10150C00A2002208031D8B2A8C2A792A0800720853
:10151C00F400922A0130F20772088600013087002D
:10152C000108031D9A2A9B2A902A74087202F20061
:10153C00F301F21BF30308002E00101022004608E2
:10154C00F1004508F0008A311D228A3123004A0837
:10155C004B040319B22AB32AB82A4B088A004A084A
:10156C000A008A31080001302200BD070030BE3D60
:10157C00BF3DC03D0130D3002000160D160D0139C2
:10158C00F0000130F006F00CF00C160870067F39F4
:10159C007006960008000F3023001005F20008308A
:1015AC0072060319DA2ADB2AE42A0F301005F2003E
:1015BC000B307206031DE32AE42AE52A91150F1C51
:1015CC00E82AE92AE52A0C08080089317C218A31AD
:1015DC008931A8218A318E3104268A3189319521AD
:1015EC008A318931BD218A318931E3218A318B31AC
:1015FC00A4238A318A3164228A31893147218A3184
:10160C00080001302200D0073C305002031C0F2B85
:10161C00102B232BD0010130D1073C305102031C7D
:10162C00182B192B232BD1010130D2071830520261
:10163C00031C212B222B232BD201080089314C2196
:10164C008B317B08031D2B2B2C2B302B0130FB00FB
:10165C00FA01402B7B03031D342B352B402B7A08CE
:10166C00013EFA0008307A02031C3D2B3E2B402B26
:10167C00FB01FA010800F601F701721C462B472BFF
:10168C004B2B7408F6077508F73D0130F435F50D52
:10169C00890B4C2B0130F336F20C890B512B720851
:1016AC007304031D5A2B5B2B432B7708F30076082E
:1016BC00F20008005A302000DC005708DD00013031
:1016CC00DE00DF01E001E601E7015D30CF00003014
:1016DC00D0005908D2005808D1005C30D3008B31AF
:1016EC00CE238B31200057085F078600013087001E
:1016FC00810108002000A901AA01972B2808F600F7
:10170C00F7017608F2007708F3002708F5002608A1
:10171C00F4008D31AB258B3101302000A90700304E
:10172C00AA3D250829078600013087000108A8007A
:10173C002808031DA22BA32B842B080024008F0147
:10174C0090010430910086308D00E8308C002E0022
:10175C00101024000D082200C60024000C082200E2
:10176C00C5002E001A144230F2000930F300893102
:10177C0057218B312E0011101B144130F20009300F
:10178C00F30089316F218B31073024008E00080063
:10179C0020005208D6005108D5002200C101C20118
:1017AC00EA2B5008C0004F08BF005530C100530849
:1017BC00C20080316D208B3120003F082200C10710
:1017CC00200040082200C23D200055088400560825
:1017DC0085001200031DF32BF42BD72B220042089B
:1017EC002000D000220041082000CF000800720821
:1017FC0073040319022C032C2A2C0130F6000D2C37
:10180C000130F235F30D890B072C0130F607F31F6D
:10181C00102C112C062C73087502031D172C720842
:10182C007402031C1A2C1B2C1F2C7208F402730854
:10183C00F53B0130F336F20C890B202C0130F6020B
:10184C00031D292C2A2C112C7508F3007408F200A6
:10185C000800F701F801720873040319362C372CB1
:10186C00642C0130F600412C0130F235F30D890B5C
:10187C003B2C0130F607F31F442C452C3A2C01303D
:10188C00F735F80D890B462C73087502031D502C87
:10189C0072087402031C532C542C592C7208F40239
:1018AC007308F53B77140130F336F20C890B5A2C84
:1018BC000130F602031D632C642C452C7808F300D0
:1018CC007708F2000800F300730823008C00901FC7
:1018DC00702C712C722CB32C0F301005F2000830C8
:1018EC00720603197A2C7B2C912C0F301005F20008
:1018FC000B3072060319832C842C912C10162E009D
:10190C000F1C892C8A2C852C23000F198E2C8F2CC4
:10191C00B32C0F08B32C0F301005F20008307206F0
:10192C000319992C9A2CA32C0F301005F2000B30B4
:10193C007206031DA22CA32CB32C0F18A62CA72CBB
:10194C00A32C0F0C890C0139F20011081F397204F9
:10195C00031DB12CB22CA72C11080800F701F51FA0
:10196C00B82CB92CC02CF409F509F40A0319F50AA2
:10197C000130F700F31FC32CC42CC92CF209F30956
:10198C00F20A0319F30A720873040319CE2CCF2C34
:10199C00F62C0130F600D92C0130F235F30D890B01
:1019AC00D32C0130F607F31FDC2CDD2CD22C730862
:1019BC007502031DE32C72087402031CE62CE72C41
:1019CC00EB2C7208F4027308F53B0130F336F20C81
:1019DC00890BEC2C0130F602031DF52CF62CDD2CBA
:1019EC0077080319FA2CFB2C002DF409F509F40ADD
:1019FC000319F50A7508F3007408F20008008B311E
:101A0C0007238D3120000D0E0139EE000E0E890CCE
:101A1C000139EF0022006F03031D152D162D1F2D0C
:101A2C0020006E08031D1B2D1C2D1F2D8B31242314
:101A3C008D3122006E03031D242D252D2E2D20000B
:101A4C006F08031D2A2D2B2D2E2D8631BC268D3192
:101A5C0020006E082200EF0020006F082200EE002C
:101A6C007B08031D3A2D3B2D3F2D853108258D31EB
:101A7C00472D7B03031D432D442D472D8231BF225F
:101A8C008D312000160D160D0139ED000130ED06DB
:101A9C00ED0CED0C16086D067F396D0696000800EE
:101AAC002200491C5A2D5B2D652D20002D08A50008
:101ABC002C08A7002B08A6008B3180238D31200029
:101ACC00AF1F692D6A2D6C2DAE01AF01B001B101B4
:101ADC00802D2030F2000030F30020002C08F5009F
:101AEC002B08F4008D31AB258D3101302000B0076F
:101AFC000030B13D3108803AF8002F08803A780266
:101B0C00031D8A2D2E083002031C8D2D8E2D6F2D5A
:101B1C0022004918922D932D9D2D20002D08A500F3
:101B2C002C08A7002B08A6008B3180238D312000B8
:101B3C002D08F2008A318D228D3120002E0872077B
:101B4C00AB002F08733DAC00080074087504031932
:101B5C00B02DB12DB72D74087504031DB62DB72DFE
:101B6C00BC2D7208893143218D31032E74088600F7
:101B7C0087014931160001040319C52DC62DE52D29
:101B8C007408860087014931403F2000A000413F86
:101B9C00A1007408860087014231403FA200413FFA
:101BAC00A3002308803AA4002108803A2402031DD4
:101BBC00E12D200822020318E42DE52D032E7408D4
:101BCC008600870142317408840075088500003F47
:101BDC002000A000013FA100403F20078400413FAE
:101BEC00213D85007208800074088600870142310F
:101BFC000130810741310318810A080020009A0145
:101C0C00990196019701980107309500FF309100DA
:101C1C00FF309200FF309300FF309400FF303E0005
:101C2C00D900C430CE00EF30C3000730E400FF30E1
:101C3C00B800DA01E501C401B9011830CF00E601A2
:101C4C00BA01C501D001DB01FF30BB00FF30C6007B
:101C5C00FF30D100FF30DC000730E700FF30BC0064
:101C6C00FF30C700FF30D200FF30DD000730E80046
:101C7C00D512D416D3123F30F2000930F30089315B
:101C8C0063218E312E0016160C303D00900013305F
:101C9C00C50014303E00A30010303D00A9001530E3
:101CAC003E00A40011303D00AA001430C60008000C
:101CBC00F701F31F622E632E6A2EF209F309F20A62
:101CCC000319F30A0130F700F51F6D2E6E2E752ED9
:101CDC00F409F509F40A0319F50A0130F706F801BD
:101CEC00F9017208730403197C2E7D2EAA2E013083
:101CFC00F600872E0130F235F30D890B812E013061
:101D0C00F607F31F8A2E8B2E802E0130F835F90D35
:101D1C00890B8C2E73087502031D962E72087402A3
:101D2C00031C992E9A2E9F2E7208F4027308F53B11
:101D3C0078140130F336F20C890BA02E0130F60228
:101D4C00031DA92EAA2E8B2E77080319AE2EAF2EAB
:101D5C00B42EF809F909F80A0319F90A7908F300FD
:101D6C007808F20008002000A401A501780886007C
:101D7C008701403FA000413FA100200884002108BA
:101D8C00850012002A3A031DCC2ECD2EFC2E78088D
:101D9C00860087010130810741310318810A7908D7
:101DAC008600870101088400850102308107003F0D
:101DBC00A400013FA500102F2508F3002408F20011
:101DCC000A30F4000030F5008B3141238E312000B5
:101DDC0023087207A4000030733DA5007808860024
:101DEC0087010130810741310318810A7808860088
:101DFC008701403FA000413FA1002008840021083A
:101E0C0085000008D03EA3000A302302031C0F2FCC
:101E1C00102FE22E2508F9002408F80008002200F3
:101E2C0043084404031D1B2F1C2F242F440820009F
:101E3C00AB00220043082000AA002D2F4308FF3ED0
:101E4C002000AA00FF302200443D2000AB002200FD
:101E5C00491C312F322F412F20002708F600F701A3
:101E6C007608F2007708F3002608F5002508F40040
:101E7C008D31AB258F312000AB1B452F462F472FC3
:101E8C00492FAA01AB01A801A9015D2F2030F20056
:101E9C000030F30020002608F5002508F4008D31F1
:101EAC00AB258F3101302000A8070030A93D29084F
:101EBC00803AF6002B08803A7602031D672F2A0819
:101ECC002802031C6A2F6B2F4C2F220049186F2FEE
:101EDC00702F7F2F20002708F600F7017608F200FC
:101EEC007708F3002608F5002508F4008D31AB25A2
:101EFC008F3120002808013EA5000030293DA600A6
:101F0C00080001302000B600220044082000B80070
:101F1C00220043082000B7001F30B9000030BA007F
:101F2C002300C301C72FFF302000B907FF30BA3D93
:101F3C003908A43E8600013087000A30F2000030D8
:101F4C00F3003508F5003408F4008B31FD238F3194
:101F5C007208303E81002000B601FF30B707FF3019
:101F6C00B83D0A30F2000030F3003508F5003408B3
:101F7C00F4008C312F248F3173082000B5007208C7
:101F8C00B400200039083A040319CD2FCE2FEB2FC3
:101F9C0034083504031DD32FD42F992F3608031D75
:101FAC00D82FD92F992F3808803AF9008030790230
:101FBC00031DE22F01303702031CE52FE62FEB2F18
:101FCC002200C918EA2FEB2F992F20003308AC0000
:101FDC003208AB003908A43EAD003808AF00370812
:101FEC00AE008D3156258F3120002C08B3002B0804
:101FFC00B2000800003400340034003400340034E3
:10200C000034003400340034003400340034003424
:10201C000034003400340034003400340034003414
:10202C000034003400340034003400340034003404
:10203C000034003425343034323475343A34253499
:10204C003034323475343A342534303432347534D7
:10205C0020342534633425346334253463342034FC
:10206C002034253463342034003425343034323475
:10207C0075343A3425343034323475343A342534AA
:10208C00303432347534203425346334253463349D
:10209C0025346334203425346334523400342534ED
:1020AC0030343234753420344334203420342034EA
:1020BC004C342034203425347534003425343034F9
:0A20CC00323464342034433400340D
:020000040001F9
:08000000FF3FFF3FFF3FFF3F00
:0A000E00EC3FFF3F9F3FFF3FFF3F25
:00000001FF
