:1000000080313428013401347E1480310030860080
:10001000003087002E00961E0E280F2817288C1EF1
:100020001228132817288A311022803132280B1FFA
:100030001A281B2832281A1C1E281F282728101CA3
:100040002228232827288A31B322803132281B1CFA
:100050002A282B283228111C2E282F2832288A31B2
:100060001F2280317E100900803136282200803125
:1000700002208031EE00803103208031EF00FA0150
:10008000FB01203084000130850034308931B221F9
:100090008031A03084000130850024308931B221C4
:1000A00080317E1020008631362E200041088600E7
:1000B0008701403FC300413FC40043088400440817
:1000C00085001200253A031D662867287729410814
:1000D000860087010130810741310318810A22001F
:1000E000C301C4010030C900FF302300A000FF306D
:1000F000A1002000C8019B282200C914200041084B
:10010000860087010130810741310318810A9B284D
:100110000130C8009B28410886008701403FC3008A
:10012000413FC40043088400440885000008303A79
:1001300003197C288828480803199F28A0288B28A1
:100140004108F8004208F9008E31B926803179085B
:100150002200C4007808C300C41FAF28B028B62806
:100160004914C309C409C30A0319C40A2000410879
:1001700086008701403FC300413FC400430884001C
:10018000440885001200633A031DC728C828E928DF
:100190004108860087010130810741310318810A37
:1001A000420886008701010884008501023081072A
:1001B0000008C7004008A6003F08A5004708A700A0
:1001C0008F311527803120002608C0002508BF0088
:1001D0009D29410886008701403FCD00413FCE0068
:1001E0004D0884004E0885001200643A0319F9286E
:1001F000FA2804294D0884004E0885001200693A47
:10020000031D032904292E294208860087010108BD
:100210008400850102308107003FC900013FCA0008
:100220004D08013EC30000304E3DC4004108860029
:1002300087014308C03F4408C13F4008B3003F085E
:10024000B2004A08B5004908B40084314424803122
:1002500020003308C0003208BF009D294D088400EB
:100260004E0885001200753A031D372938296C297C
:100270004208860087010108840085010230810759
:10028000003FC900013FCA004D08013EC3000030D5
:100290004E3DC4004108860087014308C03F440822
:1002A000C13F63294008B3003F08B2004A08B500C7
:1002B0004908B4008F318727803120003308C000FF
:1002C0003208BF009D294D0884004E0885000008B3
:1002D000753A031952296C294108860087010130BB
:1002E000810741310318810ABF01C0019D294108DE
:1002F00086008701403FC300413FC400430884009B
:10030000440885000008C500C6014508F2004608FB
:10031000F3004008F5003F08F4008E3105268031D7
:100320002000410886008701013081074131031810
:10033000810A0130BF000030C000080023000F0C0C
:10034000890C0139F40011081F397404031DA9290F
:10035000AA299E2911141118AE29AF29AB290F0C17
:10036000890C0139F40011081F397404031DB929DF
:10037000BA29AF299A308C317724813123000F0CB0
:10038000890C0139F40011081F397404031DC929AF
:10039000CA29BE2901308C317724813123000F0C0A
:1003A000890C0139F40011081F397404031DD9297F
:1003B000DA29CE2991149118DE29DF29DB290F0CC7
:1003C000890C0139F40011081F397404031DE9294F
:1003D000EA29DF299B308C317724813123000F0CEF
:1003E000890C0139F40011081F397404031DF9291F
:1003F000FA29EE298A31FB228131F50023000F0C06
:10040000890C0139F40011081F397404031D092AED
:100410000A2AFE2991161116111A0F2A102A0C2ADF
:100420000F0C890C0139F40011081F397404031DE5
:100430001A2A1B2A102A111511191F2A202A1C2AD0
:10044000751F232A242A9E290F0C890C0139F400D8
:1004500011081F397404031D2E2A2F2A242A11146F
:100460001118332A342A302A0F0C890C0139F40070
:1004700011081F397404031D3E2A3F2A342A9A307A
:100480008C317724813123000F0C890C0139F40061
:1004900011081F397404031D4E2A4F2A432A0030C5
:1004A0008C317724813123000F0C890C0139F40041
:1004B00011081F397404031D5E2A5F2A532A911400
:1004C0009118632A642A602A0F0C890C0139F40000
:1004D00011081F397404031D6E2A6F2A642A9B3089
:1004E0008C317724813123000F0C890C0139F40001
:1004F00011081F397404031D7E2A7F2A732A8A314A
:10050000FB228131F50023000F0C890C0139F40026
:1005100011081F397404031D8E2A8F2A832A91160D
:100520001116111A942A952A912A0F0C890C013957
:10053000F40011081F397404031D9F2AA02A952A6C
:1005400011151119A42AA52AA12A7508080003303B
:100550007A060319AC2AAD2AB32A20302100E10023
:100560000030E200B82A5E302100E1000030E200F5
:100570006108DE0004307A060319BF2AC02AC52AA2
:100580002030E3000030E400C92A5E30E300003090
:10059000E4006308DF0005307A060319D02AD12A67
:1005A000D62A2030E5000030E600DA2A5E30E50089
:1005B0000030E6006508E00022004F08031DE12A34
:1005C000E22AE82A61302100E7000030E800ED2A45
:1005D00041302100E7000030E800BC302000D700A7
:1005E0001130D8000030D9003B30DA009030DB0009
:1005F000220052082100B000B10130082000DC00C8
:10060000210031082000DD00220051082100B20045
:10061000B30132082000DE00210033082000DF0093
:10062000220050082100B400B50134082000E00089
:10063000210035082000E10021005E08B600B70166
:1006400036082000E200210037082000E3002100E6
:100650005F08B800B90138082000E400210039081B
:100660002000E50021006008BA00BB013A08200024
:10067000E60021003B082000E70021006808200078
:10068000E900210067082000E8008531AD258231AE
:10069000CD302000D7001130D8000030D9005530BF
:1006A000DA009030DB0022004B082100B000B101DD
:1006B00030082000DC00210031082000DD0022008D
:1006C0004A082100B200B30132082000DE002100F8
:1006D00033082000DF008531AD258231803089313B
:1006E000B8218231BC302000A0000030A1008A3146
:1006F00089228231C0308931B8218231CD30200049
:10070000A0000030A1008A31892282310800220035
:100710004F08031D8C2B8D2B932B61302100D800AB
:100720000030D900982B41302100D8000030D9008A
:1007300022004C08031D9D2B9E2BA42B2030210052
:10074000DA000030DB00A92B4C302100DA00003049
:10075000DB0022004D08031DAE2BAF2BB52B203044
:100760002100DC000030DD00BA2B54302100DC0019
:100770000030DD0022004E08031DBF2BC02BC62B0E
:1007800020302100DE000030DF00CB2B4330210081
:10079000DE000030DF00B6302000D7001130D80076
:1007A0000030D9002030DA009030DB0022005208FF
:1007B0002100B000B10130082000DC002100310828
:1007C0002000DD00220051082100B200B3013208F0
:1007D0002000DE00210033082000DF002200500846
:1007E0002100B400B50134082000E00021003508E4
:1007F0002000E10021005F082000E30021005E08E6
:100800002000E20021005D082000E50021005C08D6
:100810002000E40021005B082000E70021005A08C6
:100820002000E600210059082000E90021005808B6
:100830002000E8008531AD258331C7302000D70086
:100840001130D8000030D9006430DA009030DB007D
:100850008531AD25833180308931B8218331B6307F
:100860002000A0000030A1008A3189228331C030ED
:100870008931B8218331C7302000A0000030A100A9
:100880008A3189228331080001302000B900B51B6C
:100890004A2C4C2C01304D2C0030BC002200440866
:1008A0002000BB00220043082000BA003C080319C6
:1008B0005A2C5B2C6F2CFF30BA07FF30BB3D3C0835
:1008C000031D632C642C692C2B30B7000030B8005A
:1008D0006D2C2D30B7000030B8003708BC001F3039
:1008E000BD000030BE002300C301AB2CFF30200050
:1008F000BD07FF30BE3D3D08A43E860001308700A5
:100900000A30F2000030F3003508F5003408F40036
:100910008D310E2584317308F9007208F8008A3190
:10092000512284317808303E81002000B901FF3027
:10093000BA07FF30BB3D0A30F2000030F300350843
:10094000F5003408F4008E315E26843173082000EF
:10095000B5007208B40020003E08803AB60080302E
:100960003602031DB52C01303D02031CB82CB92CF6
:10097000D72C200034083504031DBF2CC02C762C46
:100980003908031DC42CC52C762C3B08803AB600D0
:1009900080303602031DCE2C01303A02031CD12CCC
:1009A000D22CD72C2200C918D62CD72C762C20007C
:1009B0003C080319DC2CDD2CE82CFF30BD07FF3090
:1009C000BE3D3D08A43E8600013087003C08810002
:1009D0003308AC003208AB003D08A43EAD003B0834
:1009E000AF003A08AE008D31B025843120002C08CC
:1009F000B3002B08B2000800F6007608F039F700C3
:100A00007608F5000430F535890B032D7508F039AB
:100A1000F80023000F0C890C0139F50011081F396B
:100A20007504031D142D152D092D11141118192DE0
:100A30001A2D162D0F0C890C0139F50011081F39DC
:100A40007504031D242D252D1A2D4E308C3177244D
:100A5000843123000F0C890C0139F50011081F396E
:100A60007504031D342D352D292D7708740408389D
:100A70008C317724843123000F0C890C0139F50067
:100A800011081F397504031D462D472D3B2D77088E
:100A900074040C388C317724843123000F0C890CBA
:100AA0000139F50011081F397504031D582D592D02
:100AB0004D2D00007708740408388C317724843178
:100AC00023000F0C890C0139F50011081F3975043A
:100AD000031D6B2D6C2D602D7808740408388C3143
:100AE0007724843123000F0C890C0139F50011089B
:100AF0001F397504031D7D2D7E2D722D7808740419
:100B00000C388C317724843123000F0C890C013987
:100B1000F50011081F397504031D8F2D902D842DAC
:100B200000007808740408388C317724843123005D
:100B30000F0C890C0139F50011081F397504031DCC
:100B4000A22DA32D972D11151119A72DA82DA42D78
:100B50001030890BA92D0032080080302000590286
:100B6000003003195802031CB62DB72DBD2D4B3094
:100B70002300A2000030A300352E5C302100A40029
:100B8000200057082100A500A601003020005902CE
:100B9000023003195802031CCE2DCF2DDB2D58082F
:100BA000FF3E2100AE00FF302000593D2100AF0084
:100BB000A701A801E42D01302100AE000030AF00F4
:100BC0000130A7000030A800A5302000CF00003081
:100BD000D0005B08D2005A08D100A430D3008B317A
:100BE000DC238531200050082100A30020004F089D
:100BF0002100A2002000580859040319002E012EDC
:100C0000352E2100A31B052E062E352E2000580858
:100C1000FF3EEA00FF30593DEB0021002308803AF7
:100C20002000EC006B08803A6C02031D1A2E6A0843
:100C300021002202031C1D2E1E2E292E20005808E2
:100C4000FF3E2100A000FF302000593D2100A100FF
:100C50002E2E21002308A1002208A0002000570802
:100C60002100200786008701810108000030220052
:100C7000E8000030E7000030E6000030E5008A318F
:100C8000E22286318A310322863187313C27863140
:100C90008A313F2286318A31632286318931EC21C3
:100CA0008631003A0319552E562EB82E8931D82197
:100CB000863175082200ED007408EC007308EB0023
:100CC0007208EA008D315F258631220065086A02CC
:100CD0002100E900220066086B3B2100EA002200A7
:100CE00067086C3B2100EB00220068086D3B210087
:100CF000EC006C08031D882E6B08031D882E6A0803
:100D0000031D882E05306902031C872E882E912E24
:100D100022006D08E8006C08E7006B08E6006A082E
:100D2000E50081319E2186312200E900C030893101
:100D3000B821863154302000D7007030D800903070
:100D4000D900220069082100E900EA0169082000B1
:100D5000DA0021006A082000DB008B316E23863127
:100D600054302000A0000130A1008A318922863150
:100D7000630000004E2E803134287B03031DC12EFA
:100D8000C22E3B2F192F1830F2000030F300220042
:100D90005208013EF400003003180130F5008D3197
:100DA0000E25863172082200D2003B2F3C30F20023
:100DB0000030F30022005108013EF4000030031817
:100DC0000130F5008D310E25863172082200D100E8
:100DD0003B2F3C30F2000030F30022005008013E6F
:100DE000F400003003180130F5008D310E258631F6
:100DF00072082200D0003B2F3330F2000030F300A5
:100E000022004B08013EF400003003180130F500C9
:100E10008D310E25863172082200CB003B2F220037
:100E20004A08013E0339CA003B2F01302200CF0699
:100E30003B2F7A08F800F9017908003A0319212FAD
:100E40003B2F7808003A0319C32E013A0319D62E16
:100E5000033A0319E92E013A03193B2F073A031904
:100E6000FC2E013A03190F2F033A0319152F013AEB
:100E700003193B2F3B2F08004130F900EE30890B5E
:100E80003F2FF90B3F2F003230308731B8278731A1
:100E900034308731B8278731A630890B4D2F003287
:100EA00030308731B82787310730F9007D30890B22
:100EB000572FF90B572F000030308731B827873173
:100EC00034308731B8278731A630890B652F00323F
:100ED00030308731B82787312130890B6D2F0000E2
:100EE00030308731B827873134308731B8278731A0
:100EF000A630890B792F003230308731B8278731FF
:100F00002130890B812F000020308731B8278731AD
:100F100024308731B8278731A630890B8D2F0032D6
:100F200020308731B82787310730F9007D30890BB1
:100F3000972FF90B972F0000F40128308431FC24FF
:100F40008731F40106308431FC248731F4010F30FD
:100F50008431FC248731F40101308431FC24873151
:100F60000330F9009830890BB32FF90BB32F080029
:100F7000F50023000F0C890C0139F40011081F390A
:100F80007404031DC42FC52FB92F11141118C92FB4
:100F9000CA2FC62F0F0C890C0139F40011081F3914
:100FA0007404031DD42FD52FCA2F4E308C317724D3
:100FB000873123000F0C890C0139F40011081F3907
:100FC0007404031DE42FE52FD92F75088C31772485
:100FD000873123000F0C890C0139F40011081F39E7
:100FE0007404031DF42FF52FE92F11151119F92F92
:100FF000FA2FF62F08002200CC01CD01CE01080007
:10132800080008000800080024000E140800310016
:10133800960190309500080073082300C9007208D0
:10134800C800080073082300C5007208C40008001C
:1013580073082300C7007208C600080064008001F3
:101368000131890BB3290034F900F401790884317B
:10137800FC24893108002F009601970198019901F2
:101388009A019B010800F900F401F40A79088431F4
:10139800FC2489310800623031008D008F019101F1
:1013A800023093009201080022004008F5003F082F
:1013B800F4003E08F3003D08F200080080302300E6
:1013C8008F0008309000910103308D0090120800C2
:1013D800220053080319F129F229F529D301013014
:1013E800F6290030080080302900980099019A01F8
:1013F8009B019D019C019701960195010800803091
:1014080023008F0008309000910103308D00901662
:1014180020009315131608002E008C122300440890
:1014280045040319182A192A1E2A45088A0044085F
:101438000A008A3108002E001110230046084704CC
:101448000319272A282A2D2A47088A0046080A004D
:101458008A31080024000E1D322A332A3A2A0E1037
:1014680071088D0070088C000E143E2A71088D00DA
:1014780070088C0008003E00B813200091139613E2
:10148800CA30F2000A30F3008931A0218A3189314B
:1014980098218A318B170B170800F91B542A552AF3
:1014A800562A622A78092000A0007909A100A00A1A
:1014B8000319A10A2008F8002108F90008002200F1
:1014C800CF01D001D101D2011430CB000230CA00C3
:1014D800FB01FA0187313C278A31833187238A311E
:1014E8000800B73020009F00FF309D009C012E00AF
:1014F8008C1296169430F2000930F3008931A62137
:101508008A31803020009E0008008E2A2208893106
:10151800C7218A3120002108870020088600A00AF8
:101528000319A10A0108A2002208031D9C2A9D2A6A
:101538008A2A08007208F400A32A0130F207720808
:101548008600013087000108031DAB2AAC2AA12AB6
:1015580074087202F200F301F21BF30308002E0074
:10156800101022004608F1004508F0008A312E22AA
:101578008A312300480849040319C32AC42AC92AFE
:1015880049088A0048080A008A3108000130220008
:10159800BD070030BE3DBF3DC03D0130D300200037
:1015A800160D160D0139F0000130F006F00CF00CA4
:1015B800160870067F397006960008008931BF2129
:1015C8008A318931E2218A318C31C2248A318931C8
:1015D800CF218A318931F7218A318B31B2238A317F
:1015E8008A3175228A3189319B218A3108000F306E
:1015F80023001005F200083072060319042B052B8E
:101608000E2B0F301005F2000B307206031D0D2B48
:101618000E2B0F2B91150F1C122B132B0F2B0C08B5
:10162800080001302200D0073C305002031C1D2B5B
:101638001E2B312BD0010130D1073C305102031C45
:10164800262B272B312BD1010130D207183052021B
:10165800031C2F2B302B312BD20108008731FB279D
:101668008B317B08031D392B3A2B3E2B0130FB00B5
:10167800FA014E2B7B03031D422B432B4E2B7A087A
:10168800013EFA0008307A02031C4B2B4C2B4E2BE0
:10169800FB01FA010800F601F701721C542B552BC7
:1016A800592B7408F6077508F73D0130F435F50D28
:1016B800890B5A2B0130F336F20C890B5F2B720819
:1016C8007304031D682B692B512B7708F3007608E8
:1016D800F20008005A302000DC005708DD00013015
:1016E800DE00DF01E001E601E7015D30CF000030F8
:1016F800D0005908D2005808D1005C30D3008B3193
:10170800DC238B31200057085F07860001308700F3
:10171800810108002000A901AA01A52B2808F600CC
:10172800F7017608F2007708F3002708F500260885
:10173800F4008E3105268B3101302000A9070030D6
:10174800AA3D250829078600013087000108A8005E
:101758002808031DB02BB12B922B080024008F0101
:1017680090010430910086308D00E8308C002E0006
:10177800101024000D082200C60024000C082200C6
:10178800C5002E001A149630F2000930F300893192
:10179800A0218B312E0011101B149530F200093056
:1017A800F3008931AC218B31073024008E0008000A
:1017B80020005208D6005108D5002200C101C201FC
:1017C800F82B5008C0004F08BF005530C10053081F
:1017D800C200803155208B3120003F082200C1070C
:1017E800200040082200C23D200055088400560809
:1017F80085001200031D012C022CE52B2200420853
:101808002000D000220041082000CF000800720804
:1018180073040319102C112C382C0130F6001B2CE2
:101828000130F235F30D890B152C0130F607F31F43
:101838001E2C1F2C142C73087502031D252C7208EE
:101848007402031C282C292C2D2C7208F40273080E
:10185800F53B0130F336F20C890B2E2C0130F602E1
:10186800031D372C382C1F2C7508F3007408F20060
:101878000800F701F801720873040319442C452C79
:10188800722C0130F6004F2C0130F235F30D890B24
:10189800492C0130F607F31F522C532C482C0130E9
:1018A800F735F80D890B542C73087502031D5E2C4F
:1018B80072087402031C612C622C672C7208F402F3
:1018C8007308F53B77140130F336F20C890B682C5A
:1018D8000130F602031D712C722C532C7808F3008A
:1018E8007708F2000800F300730823008C00901FAB
:1018F8007E2C7F2C802CC12C0F301005F200083074
:1019080072060319882C892C9F2C0F301005F200C1
:101918000B3072060319912C922C9F2C10162E0056
:101928000F1C972C982C932C23000F199C2C9D2C62
:10193800C12C0F08C12C0F301005F20008307206B8
:101948000319A72CA82CB12C0F301005F2000B306E
:101958007206031DB02CB12CC12C0F18B42CB52C59
:10196800B12C0F0C890C0139F20011081F397204CF
:10197800031DBF2CC02CB52C1108080020009A01AB
:10198800990196019701980107309500FF30910061
:10199800FF309200FF309300FF309400FF303E008C
:1019A800D900E430CE00FF30C3000730E400FF3038
:1019B800B800DA01E501C401B9011830CF00E60129
:1019C800BA01C501D001DB01FF30BB00FF30C60002
:1019D800FF30D100FF30DC000730E700FF30BC00EB
:1019E800FF30C700FF30D200FF30DD000730E800CD
:1019F80013303D00C50014303E00A30010303D00F8
:101A0800A90015303E00A40011303D00AA00143092
:101A1800C6000800F701F51F122D132D1A2DF40921
:101A2800F509F40A0319F50A0130F700F31F1D2D13
:101A38001E2D232DF209F309F20A0319F30A72087D
:101A480073040319282D292D502D0130F600332D4C
:101A58000130F235F30D890B2D2D0130F607F31FF8
:101A6800362D372D2C2D73087502031D3D2D720858
:101A78007402031C402D412D452D7208F402730891
:101A8800F53B0130F336F20C890B462D0130F60296
:101A9800031D4F2D502D372D77080319542D552D23
:101AA8005A2DF409F509F40A0319F50A7508F30023
:101AB8007408F20008008B3115238D3120000D0EBB
:101AC8000139EE000E0E890C0139EF0022006F0378
:101AD800031D6F2D702D792D20006E08031D752DA7
:101AE800762D792D8B3132238D3122006E03031D23
:101AF8007E2D7F2D882D20006F08031D842D852DB8
:101B0800882D8631BD268D3120006E082200EF0019
:101B180020006F082200EE007B08031D942D952DF0
:101B2800992D833187238D31A12D7B03031D9D2D95
:101B38009E2DA12D8231A7228D312000160D160D64
:101B48000139ED000130ED06ED0CED0C16086D06BF
:101B58007F396D06960008002200491CB42DB52D6A
:101B6800BF2D20002D08A5002C08A7002B08A600D3
:101B78008B318E238D312000AF1FC32DC42DC62D70
:101B8800AE01AF01B001B101DA2D2030F200003012
:101B9800F30020002C08F5002B08F4008E310526F0
:101BA8008D3101302000B0070030B13D3108803A56
:101BB800F8002F08803A7802031DE42D2E08300221
:101BC800031CE72DE82DC92D22004918EC2DED2D19
:101BD800F72D20002D08A5002C08A7002B08A6002B
:101BE8008B318E238D3120002D08F2008A319E2200
:101BF8008D3120002E087207AB002F08733DAC0012
:101C080008007408750403190A2E0B2E112E740887
:101C18007504031D102E112E162E72088931972176
:101C28008E315D2E74088600870149311600010443
:101C380003191F2E202E3F2E740886008701493174
:101C4800403F2000A000413FA100740886008701A2
:101C58004231403FA200413FA3002308803AA4003C
:101C68002108803A2402031D3B2E20082202031873
:101C78003E2E3F2E5D2E740886008701423174087F
:101C8800840075088500003F2000A000013FA100E6
:101C9800403F20078400413F213D850072088000B5
:101CA80074088600870142310130810741310318E9
:101CB800810A0800F701F31F622E632E6A2EF209CB
:101CC800F309F20A0319F30A0130F700F51F6D2E24
:101CD8006E2E752EF409F509F40A0319F50A013078
:101CE800F706F801F9017208730403197C2E7D2E9A
:101CF800AA2E0130F600872E0130F235F30D890B3C
:101D0800812E0130F607F31F8A2E8B2E802E01308C
:101D1800F835F90D890B8C2E73087502031D962E64
:101D280072087402031C992E9A2E9F2E7208F402D0
:101D38007308F53B78140130F336F20C890BA02EAA
:101D48000130F602031DA92EAA2E8B2E770803193F
:101D5800AE2EAF2EB42EF809F909F80A0319F90ABC
:101D68007908F3007808F20008002000A401A50112
:101D7800780886008701403FA000413FA100200865
:101D880084002108850012002A3A031DCC2ECD2E8E
:101D9800FC2E78088600870101308107413103183D
:101DA800810A7908860087010108840085010230CC
:101DB8008107003FA400013FA500102F2508F3006C
:101DC8002408F2000A30F4000030F5008B314F236C
:101DD8008E31200023087207A4000030733DA5004F
:101DE8007808860087010130810741310318810A8C
:101DF800780886008701403FA000413FA1002008E5
:101E08008400210885000008D03EA3000A30230280
:101E1800031C0F2F102FE22E2508F9002408F800C4
:101E28000800220043084404031D1B2F1C2F242FE5
:101E380044082000AB00220043082000AA002D2FF0
:101E48004308FF3E2000AA00FF302200443D200046
:101E5800AB002200491C312F322F412F20002708C8
:101E6800F600F7017608F2007708F3002608F50077
:101E78002508F4008E3105268F312000AB1B452F35
:101E8800462F472F492FAA01AB01A801A9015D2FB1
:101E98002030F2000030F30020002608F500250865
:101EA800F4008E3105268F3101302000A80700305C
:101EB800A93D2908803AF6002B08803A7602031DCE
:101EC800672F2A082802031C6A2F6B2F4C2F220029
:101ED80049186F2F702F7F2F20002708F600F70171
:101EE8007608F2007708F3002608F5002508F400C4
:101EF8008E3105268F3120002808013EA5000030CC
:101F0800293DA600080001302000B6002200440840
:101F18002000B800220043082000B7001F30B90095
:101F28000030BA002300C301C72FFF302000B907D3
:101F3800FF30BA3D3908A43E8600013087000A30D8
:101F4800F2000030F3003508F5003408F4008C3155
:101F58000B248F317208303E81002000B601FF301B
:101F6800B707FF30B83D0A30F2000030F3003508FB
:101F7800F5003408F4008C313D248F3173082000BB
:101F8800B5007208B400200039083A040319CD2FAF
:101F9800CE2FEB2F34083504031DD32FD42F992FC0
:101FA8003608031DD82FD92F992F3808803AF90001
:101FB80080307902031DE22F01303702031CE52F20
:101FC800E62FEB2F2200C918EA2FEB2F992F2000BC
:101FD8003308AC003208AB003908A43EAD0038081D
:101FE800AF003708AE008D31B0258F3120002C08A6
:101FF800B3002B08B2000800003400340034003469
:102008000034003400340034003400340034003428
:102018000034003400340034003400340034003418
:102028000034003400340034003400340034003408
:1020380000340034003400342534303432347534FC
:102048003A3425343034323475343A342534303423
:1020580032347534203425346334253463342534DC
:102068006334203420342534633420340034253458
:102078003034323475343A342534303432347534AB
:102088003A342534303432347534203425346334CA
:10209800253463342534633420342534633452348E
:1020A8000034253430343234753420344334203409
:1020B800203420344C342034203425347534003412
:1020C80030343034203443342034203420344C34F9
:1020D80020342034303400342534303432346434FD
:0620E800203443340034F3
:020000040001F9
:08000000FF3FFF3FFF3FFF3F00
:0A000E00EC3FFF3F9F3FFF3FFF3F25
:00000001FF
