:0400000080311C2807
:100008007E14803100308600003087000B1F0D28D9
:100018000E281A282E001A1C122813281A28101C19
:10002800162817281A288F31552780317E10090085
:1000380080311E2821008731FE278031EA00FB012C
:10004800A03084000030850025308E31DE268031D6
:10005800203084000130850020308E31DE2680314A
:100068007E10200081317C29F80023000F0C890CB8
:100078000139F40011081F397404031D4428452868
:1000880039281114111849284A2846280F0C890CB8
:100098000139F40011081F397404031D5428552828
:1000A8004A284E3086314A26803123000F0C890CAD
:1000B8000139F40011081F397404031D64286528E8
:1000C80059287808FA3886314A26803123000F0CDF
:1000D800890C0139F40011081F397404031D7528AF
:1000E80076286A287808FE3886314A268031230027
:1000F8000F0C890C0139F40011081F397404031D11
:10010800862887287B2800002300911491188D28C1
:100118008E288A280F0C890C0139F40011081F3920
:100128007404031D982899288E284F3086314A2652
:10013800803123000F0C890C0139F40011081F3994
:100148007404031DA828A9289D288F316C278031A5
:10015800F60023000F0C890C0139F40011081F392F
:100168007404031DB828B928AD2891161116111A60
:10017800BE28BF28BB2891149118C328C428C028BA
:100188000F0C890C0139F40011081F397404031D80
:10019800CE28CF28C4284E3086314A268031230005
:1001A8000F0C890C0139F40011081F397404031D60
:1001B800DE28DF28D3287808FA3886314A268031A5
:1001C80023000F0C890C0139F40011081F3974043D
:1001D800031DEF28F028E4287808FE3886314A26DF
:1001E800803123000F0C890C0139F40011081F39E4
:1001F8007404031D00290129F52800002300911427
:1002080091180729082904290F0C890C0139F400D1
:1002180011081F397404031D1229132908294F30A6
:1002280086314A26803123000F0C890C0139F400ED
:1002380011081F397404031D2229232917298F3116
:100248006C278031F70023000F0C890C0139F4006A
:1002580011081F397404031D3229332927299116DF
:100268001116111A382939293529911491183D295F
:100278003E293A290F0C890C0139F40011081F395D
:100288007404031D482949293E294E3086314A26DF
:10029800803123000F0C890C0139F40011081F3933
:1002A8007404031D582959294D297808FA388631CC
:1002B8004A26803123000F0C890C0139F4001108FB
:1002C8001F397404031D69296A295E29111511193A
:1002D8006E296F296B297708F4000430F436890BEE
:1002E80072290F307405F5007608F0397504080096
:1002F8008F314227813100302100E7000030E600CD
:100308000030E5000030E4008B170B178731F12728
:1003180081318431C224813121006A03031D95296A
:1003280096296A2AEA010130E4070030E53DE63DF6
:10033800E73D0030F5000030F4000E30F3001030D7
:10034800F2006708F9006608F8006508F700640815
:10035800F60085319A25813175082100DB00740883
:10036800DA007308D9007208D80000302000A8000D
:100378000030A7000030A6003C30A5000030F50092
:100388000030F4000030F3003C30F2002100670830
:10039800F9006608F8006508F7006408F60085317A
:1003A8009A25813175082000AC007408AB007308E9
:1003B800AA007208A90086319526813120002808F4
:1003C8002100DF00200027082100DE002000260889
:1003D8002100DD00200025082100DC00003020007D
:1003E800A8000030A7000030A6003C30A50021007E
:1003F80067082000AC00210066082000AB0021003F
:1004080065082000AA00210064082000A9008631A0
:1004180095268131200028082100E30020002708C4
:100428002100E200200026082100E1002000250824
:100438002100E00080308E31E4268131C730200071
:10044800D4000030D5009030D60021005B08200091
:10045800DA0021005A082000D9002100590820009C
:10046800D800210058082000D70021005F0820008C
:10047800DE0021005E082000DD0021005D0820006C
:10048800DC0021005C082000DB002100630820005C
:10049800E200210062082000E1002100610820003C
:1004A800E000210060082000DF008F31A42781319F
:1004B800C730FA008F31302781318F311F278131C2
:1004C80079087A04031D692A6A2A612A0310200020
:1004D800961F03140318712A742A20009617762A87
:1004E8002000961302302100C6004530C500A9300F
:1004F800890B7C2AC50B7C2AC60B7C2A00329029E2
:1005080080311C2820003E0886008701403FC0003B
:10051800413FC10040088400410885001200253A87
:10052800031D972A982A6D2B3E0886008701013003
:10053800810741310318810A2100BD01BE01003045
:10054800FB00FF30BF00FF30C0002000C801C92AEF
:10055800FB143E08860087010130810741310318EA
:10056800810AC92A0130C800C92A3E0886008701C5
:10057800403FC000413FC100400884004108850059
:100588000008303A0319AC2AB62A48080319CD2ABC
:10059800CE2AB92A3E08F8003F08F90085313E25E1
:1005A800823179082100BE007808BD00BE1FDD2A0F
:1005B800DE2AE42A7B14BD09BE09BD0A0319BE0A56
:1005C80020003E0886008701403FCA00413FCB001B
:1005D8004A0884004B0885000008C900FD2A01303C
:1005E800CA070030CB3D052B6930C900052BC9016E
:1005F800052B49086C3A0319F32A193A0319F82A02
:10060800FB2A4A0884004B0885001200753A031D2E
:100618000E2B0F2B632B342B3F0886008701010814
:100628008400850102308107003FC000013FC100FE
:100638004008C4004108C500C601C7013C2B3F085B
:100648008600870101088400850104308107003F86
:10065800C400013FC500023FC600033FC7003C2B52
:100668004908693A0319102B053A0319232B3C2B27
:100678004A08013EC00000304B3DC1003E088600DC
:1006880087014008C03F4108C13F5A2B3D08B100CF
:100698003C08B0004708B5004608B4004508B30058
:1006A8004408B200843139248231872B4A088400F7
:1006B8004B0885000008753A03194A2B632B200064
:1006C8003E08860087010130810741310318810AFD
:1006D800872B3E0886008701403FC000413FC1008C
:1006E80040088400410885000008C200C301420890
:1006F800F2004308F3003D08F5003C08F40085319A
:10070800F3258231632B0800F6007608F039F700EC
:100718007608F5000430F535890B8F2B7508F0390C
:10072800F80023000F0C890C0139F50011081F3956
:100738007504031DA02BA12B952B11141118A52BA3
:10074800A62BA22B0F0C890C0139F50011081F39B3
:100758007504031DB02BB12BA62B4E3086314A26CB
:10076800833123000F0C890C0139F50011081F395A
:100778007504031DC02BC12BB52B770874040838EA
:1007880086314A26833123000F0C890C0139F50084
:1007980011081F397504031DD22BD32BC72B7708DB
:1007A80074040C3886314A26833123000F0C890CD7
:1007B8000139F50011081F397504031DE42BE52BD9
:1007C800D92B000077087404083886314A2683310B
:1007D80023000F0C890C0139F50011081F39750425
:1007E800031DF72BF82BEC2B780874040838863196
:1007F8004A26833123000F0C890C0139F5001108B2
:100808001F397504031D092C0A2CFE2B7808740463
:100818000C3886314A26833123000F0C890C0139A4
:10082800F50011081F397504031D1B2C1C2C102CF6
:10083800000078087404083886314A26833123007A
:100848000F0C890C0139F50011081F397504031DB7
:100858002E2C2F2C232C11151119332C342C302C21
:100868001030890B352C0032080001302000B70009
:1008780021003E082000B90021003D082000B800F2
:100888001F30BA000030BB002200BF018D2CFF30A2
:100898002000BA07FF30BB3D3A08203E86000130F1
:1008A80087000030A8000030A7000030A6000A30FA
:1008B800A5003508AC003408AB003308AA0032089C
:1008C800A90086319526843120002508303E810014
:1008D800B701FF30B807FF30B93D0030F5000030F0
:1008E800F4000030F3000A30F2003508F90034084B
:1008F800F8003308F7003208F60085319A2584316C
:1009080075082000B5007408B4007308B3007208B5
:10091800B20020003A083B040319932C942CB22C03
:100928003508340433043204031D9B2C9C2C4B2CB7
:100938003708031DA02CA12C4B2C3908803AB6008F
:1009480080303602031DAA2C01303802031CAD2C5E
:10095800AE2CB22CFB18B12CB22C4B2C2000310839
:10096800A9003008A8003A08203EAA003908AC00BF
:100978003808AB008631DE26843108004130F900A2
:10098800EE30890BC52CF90BC52C0032303087317D
:100998006A278431343087316A278431A630890B3D
:1009A800D32C0032303087316A2784310730F90080
:1009B8007D30890BDD2CF90BDD2C000030308731C0
:1009C8006A278431343087316A278431A630890B0D
:1009D800EB2C0032303087316A2784312130890B83
:1009E800F32C0000303087316A2784313430873166
:1009F8006A278431A630890BFF2C003230308731CA
:100A08006A2784312130890B072D00002030873177
:100A18006A278431243087316A278431A630890BCC
:100A2800132D0032203087316A2784310730F900CE
:100A38007D30890B1D2DF90B1D2D0000F401283088
:100A4800833188238431F40106308331882384314B
:100A5800F4010F30833188238431F401013083316C
:100A6800882384310330F9009830890B392DF90B2C
:100A7800392D08002000A401A50178088600870107
:100A8800403FA000413FA1002008840021088500C4
:100A980012002A3A031D512D522D812D7808860007
:100AA80087010130810741310318810A79088600DE
:100AB800870101088400850102308107003FA400F6
:100AC800013FA500952D2508F3002408F2000A30FF
:100AD800F4000030F5008F31E1278531200023082C
:100AE8007207A4000030733DA500780886008701CE
:100AF8000130810741310318810A7808860087018F
:100B0800403FA000413FA100200884002108850043
:100B18000008D03EA3000A302302031C942D952D13
:100B2800672D2508F9002408F80008000030200087
:100B3800A3000030A2000030A1000030A00075081A
:100B48007404730472040319AA2DAB2DEA2D013025
:100B5800A400B72D0130F235F30DF40DF50D890B16
:100B6800AF2D0130A407F51FBA2DBB2DAE2D0130D6
:100B7800A035A10DA20DA30D890BBC2D7508790216
:100B8800031DD02D74087802031DD02D7308770239
:100B9800031DD02D72087602031CD32DD42DDD2D14
:100BA8007208F6027308F73B7408F83B7508F93BBE
:100BB80020140130F536F40CF30CF20C890BDE2D01
:100BC8000130A402031DE92DEA2DBB2D2308F500F1
:100BD8002208F4002108F3002008F2000800740835
:100BE80075040319F82DF92DFF2D74087504031DDC
:100BF800FE2DFF2D042E72088731FF278531492EDF
:100C080074088600870149311600010403190D2E66
:100C18000E2E2C2E7408860087014931403FF600BD
:100C2800413FF7007408860087014231403FF800D1
:100C3800413FF9007908803AFA007708803A7A0249
:100C4800031D282E7608780203182B2E2C2E492EE9
:100C5800740886008701423174088400750885008D
:100C6800003FF600013FF700403F76078400413F10
:100C7800773D85007208800074088600870142313C
:100C88000130810741310318810A0800F300730815
:100C980023008C00901F512E522E532E942E0F306D
:100CA8001005F2000830720603195B2E5C2E722EB6
:100CB8000F301005F2000B3072060319642E652EF2
:100CC800722E10162E000F1C6A2E6B2E662E230015
:100CD8000F196F2E702E942E0F08942E0F301005BA
:100CE800F2000830720603197A2E7B2E842E0F30FC
:100CF8001005F2000B307206031D832E842E942EED
:100D08000F18872E882E842E0F0C890C0139F200BB
:100D180011081F397204031D922E932E882E110874
:100D280008002000280827042604250403199D2EFE
:100D38009E2ED52E0130FA00AA2E0130A535A60D1B
:100D4800A70DA80D890BA22E0130FA07A81FAD2EFA
:100D5800AE2EA12E28082C02031DBC2E27082B021C
:100D6800031DBC2E26082A02031DBC2E25082902B5
:100D7800031CBF2EC02EC82E2508A9022608AA3B90
:100D88002708AB3B2808AC3B0130A836A70CA60CBB
:100D9800A50C890BC92E0130FA02031DD42ED52EBD
:100DA800AE2E2C08A8002B08A7002A08A6002908A0
:100DB800A50008007B1CE12EE22EEC2E20002A085C
:100DC800A0002908A2002808A1008731AD27863194
:100DD8002000AC1FF02EF12EF32EAB01AC01AE01BA
:100DE800AF01072F2030F2000030F300200029085F
:100DF800F5002808F4008531F325863101302000FC
:100E0800AE070030AF3D2F08803AAD002C08803A7D
:100E18002D02031D112F2B082E02031C142F152F32
:100E2800F62E7B18182F192F232F20002A08A00030
:100E38002908A2002808A1008731AD2786310800BB
:100E480020009A01990196019701980107309500B1
:100E58007F309100FF309200FF309300FF30940004
:100E6800FF303E00D900E730CE00FF30C300073026
:100E7800E400FF30B800DA01E501C401B901183017
:100E8800CF00E601BA01C501D001DB01FF30BB008C
:100E9800FF30C600FF30D100FF30DC000730E7002C
:100EA800FF30BC00FF30C700FF30D200FF30DD004C
:100EB8000730E80013303D00C50014303E00A300A1
:100EC8001530A40014303D00C6000800F5002300CA
:100ED8000F0C890C0139F40011081F397404031D23
:100EE800762F772F6B2F111411187B2F7C2F782FCB
:100EF8000F0C890C0139F40011081F397404031D03
:100F0800862F872F7C2F4E3086314A268731230043
:100F18000F0C890C0139F40011081F397404031DE2
:100F2800962F972F8B2F750886314A2687312300F5
:100F38000F0C890C0139F40011081F397404031DC2
:100F4800A62FA72F9B2F11151119AB2FAC2FA82F48
:100F580008002000A601A701C42F2508A300A401AA
:100F68002308F2002408F3002208F5002108F40001
:100F78008531F325873101302000A6070030A73DD1
:100F8800200826078600013087000108A5002508EB
:100F9800031DCF2FD02FB12F0800003400340034A8
:100FA8000034003400340034003400340034003499
:100FB8000034003400340034003400340034003489
:100FC8000034003400340034003400340034003479
:100FD80000340034003400340034803023008F00A3
:100FE80008309000910103308D0090162000931571
:080FF800131608000134080083
:101D9E0001302100EA0008003100960190309500D4
:101DAE00080073082100E9007208E80008006400CA
:101DBE0080010131890BDF2E0034F900F40179081E
:101DCE00833188238E310800F900F401F40A790872
:101DDE00833188238E3108002F00960197019801D8
:101DEE0099019A019B010800623031008D008F012C
:101DFE0091010230930092010800803023008F0081
:101E0E0008309000910103308D00901208002400DC
:101E1E000E1D122F132F1A2F0E1071088D00700821
:101E2E008C000E141E2F71088D0070088C00080097
:101E3E000030803138208F3180390319272F282F19
:101E4E002D2F0130F9000030FA002F2FF901FA0181
:101E5E000800352F20088E31EB268F317A08860048
:101E6E008701FA0A01082000A0002008031D402F58
:101E7E00412F312F08008E31F3268F318F310427F9
:101E8E008F31873124278F318E31FB268F318F3161
:101E9E00C2278F318E31D3268F3108002E001010BD
:101EAE0021004208F1004108F0008F310E278F31DA
:101EBE002100680869040319652F662F6B2F6908C6
:101ECE008A0068080A008F3108000F3023001005C1
:101EDE00F200083072060319752F762F7F2F0F3000
:101EEE001005F2000B307206031D7E2F7F2F802F00
:101EFE0091150F1C832F842F802F0C0808002000B3
:101F0E004F08D3004E08D200972F4D08BD004C0845
:101F1E00BC005230BE005008BF00823186228F3185
:101F2E00200052088400530885001200031DA02FC4
:101F3E00A12F8C2FCC01CD01080057302000E300DB
:101F4E005408E400E501E601E701ED01EE0164301D
:101F5E00CC000030CD005608CF005508CE006330BF
:101F6E00D0008F3186278F312000540866078600F7
:101F7E0087018101080024008F0190010630910035
:101F8E00F0308D008C012E00101024000D08210061
:101F9E00C20024000C082100C1002E001A14CF30FC
:101FAE00F2000E30F3008E31D8268F3131302400FE
:101FBE008E000800F601F701721CE62FE72FEB2FBB
:101FCE007408F6077508F73D0130F435F50D890BE9
:101FDE00EC2F0130F336F20C890BF12F72087304DB
:101FEE00031DFA2FFB2FE32F7708F3007608F2007C
:101FFE000800543469346D3465342034253430345B
:10200E0032346C3475343A342534303432346C34E2
:10201E0075343A342534303432346C3475340034FB
:020000040001F9
:08000000FF3FFF3FFF3FFF3F00
:0A000E00EC3FFF3F9F3FFF3FFF3F25
:00000001FF
